{
  "contractName": "PetInteraction",
  "abi": [
    {
      "constant": true,
      "inputs": [
        {
          "name": "",
          "type": "address"
        },
        {
          "name": "",
          "type": "uint256"
        }
      ],
      "name": "ownerToPets",
      "outputs": [
        {
          "name": "",
          "type": "uint256"
        }
      ],
      "payable": false,
      "stateMutability": "view",
      "type": "function"
    },
    {
      "constant": true,
      "inputs": [
        {
          "name": "",
          "type": "address"
        }
      ],
      "name": "ownerPetCount",
      "outputs": [
        {
          "name": "",
          "type": "uint256"
        }
      ],
      "payable": false,
      "stateMutability": "view",
      "type": "function"
    },
    {
      "constant": true,
      "inputs": [
        {
          "name": "",
          "type": "uint256"
        }
      ],
      "name": "petToOwner",
      "outputs": [
        {
          "name": "",
          "type": "address"
        }
      ],
      "payable": false,
      "stateMutability": "view",
      "type": "function"
    },
    {
      "constant": true,
      "inputs": [
        {
          "name": "",
          "type": "uint256"
        }
      ],
      "name": "pets",
      "outputs": [
        {
          "name": "name",
          "type": "string"
        },
        {
          "name": "lifeStage",
          "type": "uint256"
        },
        {
          "name": "happyMeter",
          "type": "uint256"
        }
      ],
      "payable": false,
      "stateMutability": "view",
      "type": "function"
    },
    {
      "anonymous": false,
      "inputs": [
        {
          "indexed": false,
          "name": "petId",
          "type": "uint256"
        },
        {
          "indexed": false,
          "name": "name",
          "type": "string"
        }
      ],
      "name": "NewPet",
      "type": "event"
    },
    {
      "constant": false,
      "inputs": [
        {
          "name": "_name",
          "type": "string"
        }
      ],
      "name": "adopt",
      "outputs": [
        {
          "name": "",
          "type": "uint256"
        }
      ],
      "payable": false,
      "stateMutability": "nonpayable",
      "type": "function"
    },
    {
      "constant": false,
      "inputs": [
        {
          "name": "_petId",
          "type": "uint256"
        }
      ],
      "name": "feedPet",
      "outputs": [],
      "payable": false,
      "stateMutability": "nonpayable",
      "type": "function"
    }
  ],
  "bytecode": "0x608060405234801561001057600080fd5b506108cf806100206000396000f3fe608060405260043610610078576000357c0100000000000000000000000000000000000000000000000000000000900463ffffffff168063566fc1231461007d5780639e0a1b7f14610159578063bd06b552146101c8578063c64310431461022d578063cfb869bf146102a8578063fbfabac41461036a575b600080fd5b34801561008957600080fd5b50610143600480360360208110156100a057600080fd5b81019080803590602001906401000000008111156100bd57600080fd5b8201836020820111156100cf57600080fd5b803590602001918460018302840111640100000000831117156100f157600080fd5b91908080601f016020809104026020016040519081016040528093929190818152602001838380828437600081840152601f19601f8201169050808301925050505050505091929192905050506103a5565b6040518082815260200191505060405180910390f35b34801561016557600080fd5b506101b26004803603604081101561017c57600080fd5b81019080803573ffffffffffffffffffffffffffffffffffffffff169060200190929190803590602001909291905050506105e2565b6040518082815260200191505060405180910390f35b3480156101d457600080fd5b50610217600480360360208110156101eb57600080fd5b81019080803573ffffffffffffffffffffffffffffffffffffffff169060200190929190505050610612565b6040518082815260200191505060405180910390f35b34801561023957600080fd5b506102666004803603602081101561025057600080fd5b810190808035906020019092919050505061062a565b604051808273ffffffffffffffffffffffffffffffffffffffff1673ffffffffffffffffffffffffffffffffffffffff16815260200191505060405180910390f35b3480156102b457600080fd5b506102e1600480360360208110156102cb57600080fd5b810190808035906020019092919050505061065d565b6040518080602001848152602001838152602001828103825285818151815260200191508051906020019080838360005b8381101561032d578082015181840152602081019050610312565b50505050905090810190601f16801561035a5780820380516001836020036101000a031916815260200191505b5094505050505060405180910390f35b34801561037657600080fd5b506103a36004803603602081101561038d57600080fd5b810190808035906020019092919050505061072e565b005b600080600160006060604051908101604052808681526020016000815260200160008152509080600181540180825580915050906001820390600052602060002090600302016000909192909190915060008201518160000190805190602001906104119291906107fe565b5060208201518160010155604082015181600201555050039050336001600083815260200190815260200160002060006101000a81548173ffffffffffffffffffffffffffffffffffffffff021916908373ffffffffffffffffffffffffffffffffffffffff160217905550600360003373ffffffffffffffffffffffffffffffffffffffff1673ffffffffffffffffffffffffffffffffffffffff168152602001908152602001600020819080600181540180825580915050906001820390600052602060002001600090919290919091505550600260003373ffffffffffffffffffffffffffffffffffffffff1673ffffffffffffffffffffffffffffffffffffffff168152602001908152602001600020600081548092919060010191905055507f2d1290ac7e468aef52fc49096417955764c2cd7b335d24fd818436c68d6e0f0481846040518083815260200180602001828103825283818151815260200191508051906020019080838360005b8381101561059e578082015181840152602081019050610583565b50505050905090810190601f1680156105cb5780820380516001836020036101000a031916815260200191505b50935050505060405180910390a180915050919050565b6003602052816000526040600020818154811015156105fd57fe5b90600052602060002001600091509150505481565b60026020528060005260406000206000915090505481565b60016020528060005260406000206000915054906101000a900473ffffffffffffffffffffffffffffffffffffffff1681565b60008181548110151561066c57fe5b9060005260206000209060030201600091509050806000018054600181600116156101000203166002900480601f0160208091040260200160405190810160405280929190818152602001828054600181600116156101000203166002900480156107185780601f106106ed57610100808354040283529160200191610718565b820191906000526020600020905b8154815290600101906020018083116106fb57829003601f168201915b5050505050908060010154908060020154905083565b6001600082815260200190815260200160002060009054906101000a900473ffffffffffffffffffffffffffffffffffffffff1673ffffffffffffffffffffffffffffffffffffffff163373ffffffffffffffffffffffffffffffffffffffff1614151561079b57600080fd5b600080828154811015156107ab57fe5b9060005260206000209060030201905060018160020160008282540192505081905550600381600201541015156107fa5760018160010160008282540192505081905550600081600201819055505b5050565b828054600181600116156101000203166002900490600052602060002090601f016020900481019282601f1061083f57805160ff191683800117855561086d565b8280016001018555821561086d579182015b8281111561086c578251825591602001919060010190610851565b5b50905061087a919061087e565b5090565b6108a091905b8082111561089c576000816000905550600101610884565b5090565b9056fea165627a7a7230582097396c456d61cb30d3112f56210ba7e2a544466a3ed2fa696ebd389ee10c81810029",
  "source": "pragma solidity ^0.5.0;\n\ncontract PetInteraction {\n\n    // type = cat, dog, bird, etc if we expand?\n    event NewPet(uint petId, string name);\n\n    struct Pet {\n        string name;\n        /* uint type; */\n        uint lifeStage;\n        uint happyMeter;\n        // More attributes tbd\n    }\n\n    Pet[] public pets;\n\n    mapping (uint => address) public petToOwner;\n    mapping (address => uint) public ownerPetCount;\n    mapping(address => uint[]) public ownerToPets;\n\n    // User creates a new pet\n    // - can name the pet\n    // - can choose the pet type (cat, dog, bird, etc)\n    function adopt(string memory _name) public returns (uint) {\n        uint id = pets.push(Pet(_name, 0, 0)) - 1;\n        petToOwner[id] = msg.sender;\n        ownerToPets[msg.sender].push(id);\n        ownerPetCount[msg.sender]++;\n        emit NewPet(id, _name);\n        return id;\n    }\n\n    // Returns all pets of user address\n    //TODO\n\n    // Feeding pet...\n    // -> can later expand to petting, playing with, and other actions\n    function feedPet(uint _petId) public {\n      require(msg.sender == petToOwner[_petId]);\n      Pet storage petObj = pets[_petId];\n\n      petObj.happyMeter += 1;\n\n      if(petObj.happyMeter >= 3){\n        petObj.lifeStage += 1;\n        petObj.happyMeter = 0;\n      }\n    }\n\n\n  /// @notice Returns a list of all Kitty IDs assigned to an address.\n  /// @param _owner The owner whose Kitties we are interested in.\n  /// @dev This method MUST NEVER be called by smart contract code. First, it's fairly\n  ///  expensive (it walks the entire Kitty array looking for cats belonging to owner),\n  ///  but it also returns a dynamic array, which is only supported for web3 calls, and\n  ///  not contract-to-contract calls.\n  /* function tokensOfOwner(address _owner) external view returns(uint256[] ownerTokens) {\n    uint256 tokenCount = balanceOf(_owner);\n\n    if (tokenCount == 0) {\n        // Return an empty array\n        return new uint256[](0);\n    } else {\n        uint256[] memory result = new uint256[](tokenCount);\n        uint256 totalCats = totalSupply();\n        uint256 resultIndex = 0;\n\n        // We count on the fact that all cats have IDs starting at 1 and increasing\n        // sequentially up to the totalCat count.\n        uint256 catId;\n\n        for (catId = 1; catId <= totalCats; catId++) {\n            if (kittyIndexToOwner[catId] == _owner) {\n                result[resultIndex] = catId;\n                resultIndex++;\n            }\n        }\n\n        return result;\n    }\n  } */\n\n}\n",
  "sourcePath": "/home/aery/blockchain/hackathon/ethwaterloo/tamagotchi/contracts/PetInteraction.sol",
  "compiler": {
    "name": "solc",
    "version": "0.5.0+commit.1d4f565a.Emscripten.clang"
  },
  "schemaVersion": "3.0.1",
  "updatedAt": "2019-11-09T13:35:49.880Z",
  "devdoc": {
    "methods": {}
  },
  "userdoc": {
    "methods": {}
  }
}