{
  "contractName": "PetInteraction",
  "abi": [
    {
      "constant": true,
      "inputs": [
        {
          "name": "",
          "type": "address"
        },
        {
          "name": "",
          "type": "uint256"
        }
      ],
      "name": "ownerToPets",
      "outputs": [
        {
          "name": "",
          "type": "uint256"
        }
      ],
      "payable": false,
      "stateMutability": "view",
      "type": "function",
      "signature": "0x9e0a1b7f"
    },
    {
      "constant": true,
      "inputs": [
        {
          "name": "",
          "type": "address"
        }
      ],
      "name": "ownerPetCount",
      "outputs": [
        {
          "name": "",
          "type": "uint256"
        }
      ],
      "payable": false,
      "stateMutability": "view",
      "type": "function",
      "signature": "0xbd06b552"
    },
    {
      "constant": true,
      "inputs": [
        {
          "name": "",
          "type": "uint256"
        }
      ],
      "name": "petToOwner",
      "outputs": [
        {
          "name": "",
          "type": "address"
        }
      ],
      "payable": false,
      "stateMutability": "view",
      "type": "function",
      "signature": "0xc6431043"
    },
    {
      "constant": true,
      "inputs": [
        {
          "name": "",
          "type": "uint256"
        }
      ],
      "name": "pets",
      "outputs": [
        {
          "name": "name",
          "type": "string"
        },
        {
          "name": "level",
          "type": "uint256"
        },
        {
          "name": "xp",
          "type": "uint256"
        }
      ],
      "payable": false,
      "stateMutability": "view",
      "type": "function",
      "signature": "0xcfb869bf"
    },
    {
      "anonymous": false,
      "inputs": [
        {
          "indexed": false,
          "name": "petId",
          "type": "uint256"
        },
        {
          "indexed": false,
          "name": "name",
          "type": "string"
        }
      ],
      "name": "NewPet",
      "type": "event",
      "signature": "0x2d1290ac7e468aef52fc49096417955764c2cd7b335d24fd818436c68d6e0f04"
    },
    {
      "anonymous": false,
      "inputs": [
        {
          "indexed": false,
          "name": "petId",
          "type": "uint256"
        },
        {
          "indexed": false,
          "name": "level",
          "type": "uint256"
        }
      ],
      "name": "LevelPet",
      "type": "event",
      "signature": "0xd36a59035edce0b1c8b802a32c9660009db294925e6b365b4e7b9bad816485bc"
    },
    {
      "anonymous": false,
      "inputs": [
        {
          "indexed": false,
          "name": "petId",
          "type": "uint256"
        },
        {
          "indexed": false,
          "name": "xp",
          "type": "uint256"
        },
        {
          "indexed": false,
          "name": "doubleXp",
          "type": "uint256"
        }
      ],
      "name": "XpGainPet",
      "type": "event",
      "signature": "0x69c6d049ece25c8153a31a465f90e39539ad286fcfbc0b22ca5cc941dd25978e"
    },
    {
      "constant": false,
      "inputs": [
        {
          "name": "_name",
          "type": "string"
        }
      ],
      "name": "adopt",
      "outputs": [
        {
          "name": "",
          "type": "uint256"
        }
      ],
      "payable": false,
      "stateMutability": "nonpayable",
      "type": "function",
      "signature": "0x566fc123"
    },
    {
      "constant": false,
      "inputs": [
        {
          "name": "_petId",
          "type": "uint256"
        }
      ],
      "name": "feedPet",
      "outputs": [],
      "payable": false,
      "stateMutability": "nonpayable",
      "type": "function",
      "signature": "0xfbfabac4"
    },
    {
      "constant": false,
      "inputs": [
        {
          "name": "_petId",
          "type": "uint256"
        }
      ],
      "name": "playPet",
      "outputs": [],
      "payable": false,
      "stateMutability": "nonpayable",
      "type": "function",
      "signature": "0x19d5eaad"
    }
  ],
  "bytecode": "0x608060405234801561001057600080fd5b50610b0a806100206000396000f3fe608060405260043610610083576000357c0100000000000000000000000000000000000000000000000000000000900463ffffffff16806319d5eaad14610088578063566fc123146100c35780639e0a1b7f1461019f578063bd06b5521461020e578063c643104314610273578063cfb869bf146102ee578063fbfabac4146103b0575b600080fd5b34801561009457600080fd5b506100c1600480360360208110156100ab57600080fd5b81019080803590602001909291905050506103eb565b005b3480156100cf57600080fd5b50610189600480360360208110156100e657600080fd5b810190808035906020019064010000000081111561010357600080fd5b82018360208201111561011557600080fd5b8035906020019184600183028401116401000000008311171561013757600080fd5b91908080601f016020809104026020016040519081016040528093929190818152602001838380828437600081840152601f19601f820116905080830192505050505050509192919290505050610511565b6040518082815260200191505060405180910390f35b3480156101ab57600080fd5b506101f8600480360360408110156101c257600080fd5b81019080803573ffffffffffffffffffffffffffffffffffffffff1690602001909291908035906020019092919050505061074e565b6040518082815260200191505060405180910390f35b34801561021a57600080fd5b5061025d6004803603602081101561023157600080fd5b81019080803573ffffffffffffffffffffffffffffffffffffffff16906020019092919050505061077e565b6040518082815260200191505060405180910390f35b34801561027f57600080fd5b506102ac6004803603602081101561029657600080fd5b8101908080359060200190929190505050610796565b604051808273ffffffffffffffffffffffffffffffffffffffff1673ffffffffffffffffffffffffffffffffffffffff16815260200191505060405180910390f35b3480156102fa57600080fd5b506103276004803603602081101561031157600080fd5b81019080803590602001909291905050506107c9565b6040518080602001848152602001838152602001828103825285818151815260200191508051906020019080838360005b83811015610373578082015181840152602081019050610358565b50505050905090810190601f1680156103a05780820380516001836020036101000a031916815260200191505b5094505050505060405180910390f35b3480156103bc57600080fd5b506103e9600480360360208110156103d357600080fd5b810190808035906020019092919050505061089a565b005b6001600082815260200190815260200160002060009054906101000a900473ffffffffffffffffffffffffffffffffffffffff1673ffffffffffffffffffffffffffffffffffffffff163373ffffffffffffffffffffffffffffffffffffffff1614151561045857600080fd5b6000808281548110151561046857fe5b90600052602060002090600302019050600060024281151561048657fe5b06905060006001820160050290508083600201600082825401925050819055507f69c6d049ece25c8153a31a465f90e39539ad286fcfbc0b22ca5cc941dd25978e84828460405180848152602001838152602001828152602001935050505060405180910390a1600a836001015402836002015410151561050b5761050a846109c0565b5b50505050565b6000806001600060606040519081016040528086815260200160018152602001600081525090806001815401808255809150509060018203906000526020600020906003020160009091929091909150600082015181600001908051906020019061057d929190610a39565b5060208201518160010155604082015181600201555050039050336001600083815260200190815260200160002060006101000a81548173ffffffffffffffffffffffffffffffffffffffff021916908373ffffffffffffffffffffffffffffffffffffffff160217905550600360003373ffffffffffffffffffffffffffffffffffffffff1673ffffffffffffffffffffffffffffffffffffffff168152602001908152602001600020819080600181540180825580915050906001820390600052602060002001600090919290919091505550600260003373ffffffffffffffffffffffffffffffffffffffff1673ffffffffffffffffffffffffffffffffffffffff168152602001908152602001600020600081548092919060010191905055507f2d1290ac7e468aef52fc49096417955764c2cd7b335d24fd818436c68d6e0f0481846040518083815260200180602001828103825283818151815260200191508051906020019080838360005b8381101561070a5780820151818401526020810190506106ef565b50505050905090810190601f1680156107375780820380516001836020036101000a031916815260200191505b50935050505060405180910390a180915050919050565b60036020528160005260406000208181548110151561076957fe5b90600052602060002001600091509150505481565b60026020528060005260406000206000915090505481565b60016020528060005260406000206000915054906101000a900473ffffffffffffffffffffffffffffffffffffffff1681565b6000818154811015156107d857fe5b9060005260206000209060030201600091509050806000018054600181600116156101000203166002900480601f0160208091040260200160405190810160405280929190818152602001828054600181600116156101000203166002900480156108845780601f1061085957610100808354040283529160200191610884565b820191906000526020600020905b81548152906001019060200180831161086757829003601f168201915b5050505050908060010154908060020154905083565b6001600082815260200190815260200160002060009054906101000a900473ffffffffffffffffffffffffffffffffffffffff1673ffffffffffffffffffffffffffffffffffffffff163373ffffffffffffffffffffffffffffffffffffffff1614151561090757600080fd5b6000808281548110151561091757fe5b90600052602060002090600302019050600060024281151561093557fe5b06905060006001820160040290508083600201600082825401925050819055507f69c6d049ece25c8153a31a465f90e39539ad286fcfbc0b22ca5cc941dd25978e84828460405180848152602001838152602001828152602001935050505060405180910390a1600a83600101540283600201541015156109ba576109b9846109c0565b5b50505050565b600080828154811015156109d057fe5b906000526020600020906003020190506000600182600101540190508082600101819055507fd36a59035edce0b1c8b802a32c9660009db294925e6b365b4e7b9bad816485bc8382604051808381526020018281526020019250505060405180910390a1505050565b828054600181600116156101000203166002900490600052602060002090601f016020900481019282601f10610a7a57805160ff1916838001178555610aa8565b82800160010185558215610aa8579182015b82811115610aa7578251825591602001919060010190610a8c565b5b509050610ab59190610ab9565b5090565b610adb91905b80821115610ad7576000816000905550600101610abf565b5090565b9056fea165627a7a7230582032f43cb995a810293b7575f0eaa1bef660bca8ae97b7b25031725ec8370af4960029",
  "source": "pragma solidity ^0.5.0;\n\ncontract PetInteraction {\n\n    // type = cat, dog, bird, etc if we expand?\n    event NewPet(uint petId, string name);\n    event LevelPet(uint petId, uint level);\n    event XpGainPet(uint petId, uint xp, uint doubleXp);\n\n    struct Pet {\n        string name;\n        /* uint type; */\n        uint level;\n        uint xp;\n        // More attributes tbd\n    }\n\n    Pet[] public pets;\n\n    mapping (uint => address) public petToOwner;\n    mapping (address => uint) public ownerPetCount;\n    mapping(address => uint[]) public ownerToPets;\n\n    // User creates a new pet\n    // - can name the pet\n    // - can choose the pet type (cat, dog, bird, etc)\n    function adopt(string memory _name) public returns (uint) {\n        uint id = pets.push(Pet(_name, 1, 0)) - 1;\n        petToOwner[id] = msg.sender;\n        ownerToPets[msg.sender].push(id);\n        ownerPetCount[msg.sender]++;\n        emit NewPet(id, _name);\n        return id;\n    }\n\n    // Returns all pets of user address\n    //TODO\n\n    // Feeding pet...\n    // -> can later expand to petting, playing with, and other actions\n    function feedPet(uint _petId) public {\n      require(msg.sender == petToOwner[_petId]);\n      Pet storage petObj = pets[_petId];\n\n      // 50% chance of hitting a double xp drop\n      uint doubleChance = uint(now) % 2;  // yes this is pretty crappy\n\n      uint xpDrop = 4 * (doubleChance + 1);\n      petObj.xp += xpDrop;\n\n      emit XpGainPet(_petId, xpDrop, doubleChance);\n\n      if (petObj.xp >= (petObj.level) * 10) {\n        levelPet(_petId);\n      }\n\n    }\n\n    function playPet(uint _petId) public {\n      require(msg.sender == petToOwner[_petId]);\n      Pet storage petObj = pets[_petId];\n\n      // 50% chance of hitting a double xp drop\n      uint doubleChance = uint(now) % 2; // yes this is pretty crappy\n\n      uint xpDrop = 5 * (doubleChance + 1);\n      petObj.xp += xpDrop;\n\n      emit XpGainPet(_petId, xpDrop, doubleChance);\n\n      if (petObj.xp >= (petObj.level) * 10) {\n        levelPet(_petId);\n      }\n\n    }\n\n    function levelPet(uint _petId) internal {\n      Pet storage petObj = pets[_petId];\n      uint level = petObj.level + 1;\n      petObj.level = level;\n      emit LevelPet(_petId, level);\n    }\n\n}\n",
  "sourcePath": "/home/aery/blockchain/hackathon/ethwaterloo/tamagotchi/contracts/PetInteraction.sol",
  "compiler": {
    "name": "solc",
    "version": "0.5.0+commit.1d4f565a.Emscripten.clang"
  },
  "schemaVersion": "3.0.1",
  "updatedAt": "2019-11-25T17:57:57.581Z",
  "devdoc": {
    "methods": {}
  },
  "userdoc": {
    "methods": {}
  }
}